{
  "contractName": "Dao",
  "abi": [
    {
      "inputs": [
        {
          "internalType": "uint256",
          "name": "",
          "type": "uint256"
        }
      ],
      "name": "arr",
      "outputs": [
        {
          "internalType": "uint256",
          "name": "",
          "type": "uint256"
        }
      ],
      "stateMutability": "view",
      "type": "function"
    },
    {
      "inputs": [],
      "name": "num_proposals",
      "outputs": [
        {
          "internalType": "uint256",
          "name": "",
          "type": "uint256"
        }
      ],
      "stateMutability": "view",
      "type": "function"
    },
    {
      "inputs": [
        {
          "internalType": "uint256",
          "name": "",
          "type": "uint256"
        }
      ],
      "name": "proposals",
      "outputs": [
        {
          "internalType": "string",
          "name": "name",
          "type": "string"
        },
        {
          "internalType": "uint256",
          "name": "yes_votes",
          "type": "uint256"
        },
        {
          "internalType": "uint256",
          "name": "no_votes",
          "type": "uint256"
        },
        {
          "internalType": "uint256",
          "name": "deadline",
          "type": "uint256"
        }
      ],
      "stateMutability": "view",
      "type": "function"
    },
    {
      "inputs": [
        {
          "internalType": "uint256",
          "name": "",
          "type": "uint256"
        },
        {
          "internalType": "address",
          "name": "",
          "type": "address"
        }
      ],
      "name": "voters",
      "outputs": [
        {
          "internalType": "bool",
          "name": "",
          "type": "bool"
        }
      ],
      "stateMutability": "view",
      "type": "function"
    },
    {
      "inputs": [
        {
          "internalType": "string",
          "name": "name",
          "type": "string"
        }
      ],
      "name": "create_proposal",
      "outputs": [],
      "stateMutability": "nonpayable",
      "type": "function"
    },
    {
      "inputs": [
        {
          "internalType": "uint256",
          "name": "prop_id",
          "type": "uint256"
        },
        {
          "internalType": "uint256",
          "name": "unix_timestamp",
          "type": "uint256"
        }
      ],
      "name": "change_proposal_deadline",
      "outputs": [],
      "stateMutability": "nonpayable",
      "type": "function"
    },
    {
      "inputs": [
        {
          "internalType": "uint256",
          "name": "prop_id",
          "type": "uint256"
        },
        {
          "internalType": "string",
          "name": "name",
          "type": "string"
        }
      ],
      "name": "change_proposal_name",
      "outputs": [],
      "stateMutability": "nonpayable",
      "type": "function"
    },
    {
      "inputs": [
        {
          "internalType": "uint256",
          "name": "prop_id",
          "type": "uint256"
        },
        {
          "internalType": "enum Dao.Vote",
          "name": "vote",
          "type": "uint8"
        }
      ],
      "name": "vote_on_proposal",
      "outputs": [],
      "stateMutability": "nonpayable",
      "type": "function"
    }
  ],
  "bytecode": "0x608060405234801561001057600080fd5b506111bf806100206000396000f3fe608060405234801561001057600080fd5b50600436106100885760003560e01c806371e5ee5f1161005b57806371e5ee5f146101145780639e31906314610144578063da2633e114610174578063e8ee86ef1461019257610088565b8063013cf08b1461008d578063025fc72e146100c05780633e30298c146100dc57806348e4fb65146100f8575b600080fd5b6100a760048036038101906100a2919061074e565b6101ae565b6040516100b7949392919061081a565b60405180910390f35b6100da60048036038101906100d5919061099b565b610266565b005b6100f660048036038101906100f191906109e4565b6102c3565b005b610112600480360381019061010d9190610a24565b610329565b005b61012e6004803603810190610129919061074e565b6103bf565b60405161013b9190610a80565b60405180910390f35b61015e60048036038101906101599190610af9565b6103e3565b60405161016b9190610b54565b60405180910390f35b61017c610412565b6040516101899190610a80565b60405180910390f35b6101ac60048036038101906101a79190610b94565b610418565b005b60006020528060005260406000206000915090508060000180546101d190610c03565b80601f01602080910402602001604051908101604052809291908181526020018280546101fd90610c03565b801561024a5780601f1061021f5761010080835404028352916020019161024a565b820191906000526020600020905b81548152906001019060200180831161022d57829003601f168201915b5050505050908060010154908060020154908060030154905084565b6000806000600154815260200190815260200160002090508181600001908161028f9190610de0565b506276a7004261029f9190610ee1565b8160030181905550600160008154809291906102ba90610f15565b91905055505050565b6000806000848152602001908152602001600020905042821161031b576040517f08c379a000000000000000000000000000000000000000000000000000000000815260040161031290610fa9565b60405180910390fd5b818160030181905550505050565b7f681afa780d17da29203322b473d3f210a7d621259a4e6ce9e403f5a266ff719a818051906020012014610392576040517f08c379a000000000000000000000000000000000000000000000000000000000815260040161038990611015565b60405180910390fd5b60008060008481526020019081526020016000209050818160000190816103b99190610de0565b50505050565b600381815481106103cf57600080fd5b906000526020600020016000915090505481565b60026020528160005260406000206020528060005260406000206000915091509054906101000a900460ff1681565b60015481565b600015156002600084815260200190815260200160002060003373ffffffffffffffffffffffffffffffffffffffff1673ffffffffffffffffffffffffffffffffffffffff16815260200190815260200160002060009054906101000a900460ff161515146104bc576040517f08c379a00000000000000000000000000000000000000000000000000000000081526004016104b390611081565b60405180910390fd5b426000808481526020019081526020016000206003015411610513576040517f08c379a000000000000000000000000000000000000000000000000000000000815260040161050a906110ed565b60405180910390fd5b6000806000848152602001908152602001600020905060016002600085815260200190815260200160002060003373ffffffffffffffffffffffffffffffffffffffff1673ffffffffffffffffffffffffffffffffffffffff16815260200190815260200160002060006101000a81548160ff0219169083151502179055506105d26040518060400160405280601881526020017f257320766f74656420666f722070726f702e20696420256400000000000000008152503385610640565b6001808111156105e5576105e461110d565b5b8260018111156105f8576105f761110d565b5b0361061e5760018160010160008282546106129190610ee1565b9250508190555061063b565b60018160020160008282546106339190610ee1565b925050819055505b505050565b6106da8383836040516024016106589392919061114b565b6040516020818303038152906040527f0d26b925000000000000000000000000000000000000000000000000000000007bffffffffffffffffffffffffffffffffffffffffffffffffffffffff19166020820180517bffffffffffffffffffffffffffffffffffffffffffffffffffffffff83818316178352505050506106df565b505050565b60006a636f6e736f6c652e6c6f6790508151602083016000808383865afa5050505050565b6000604051905090565b600080fd5b600080fd5b6000819050919050565b61072b81610718565b811461073657600080fd5b50565b60008135905061074881610722565b92915050565b6000602082840312156107645761076361070e565b5b600061077284828501610739565b91505092915050565b600081519050919050565b600082825260208201905092915050565b60005b838110156107b557808201518184015260208101905061079a565b60008484015250505050565b6000601f19601f8301169050919050565b60006107dd8261077b565b6107e78185610786565b93506107f7818560208601610797565b610800816107c1565b840191505092915050565b61081481610718565b82525050565b6000608082019050818103600083015261083481876107d2565b9050610843602083018661080b565b610850604083018561080b565b61085d606083018461080b565b95945050505050565b600080fd5b600080fd5b7f4e487b7100000000000000000000000000000000000000000000000000000000600052604160045260246000fd5b6108a8826107c1565b810181811067ffffffffffffffff821117156108c7576108c6610870565b5b80604052505050565b60006108da610704565b90506108e6828261089f565b919050565b600067ffffffffffffffff82111561090657610905610870565b5b61090f826107c1565b9050602081019050919050565b82818337600083830152505050565b600061093e610939846108eb565b6108d0565b90508281526020810184848401111561095a5761095961086b565b5b61096584828561091c565b509392505050565b600082601f83011261098257610981610866565b5b813561099284826020860161092b565b91505092915050565b6000602082840312156109b1576109b061070e565b5b600082013567ffffffffffffffff8111156109cf576109ce610713565b5b6109db8482850161096d565b91505092915050565b600080604083850312156109fb576109fa61070e565b5b6000610a0985828601610739565b9250506020610a1a85828601610739565b9150509250929050565b60008060408385031215610a3b57610a3a61070e565b5b6000610a4985828601610739565b925050602083013567ffffffffffffffff811115610a6a57610a69610713565b5b610a768582860161096d565b9150509250929050565b6000602082019050610a95600083018461080b565b92915050565b600073ffffffffffffffffffffffffffffffffffffffff82169050919050565b6000610ac682610a9b565b9050919050565b610ad681610abb565b8114610ae157600080fd5b50565b600081359050610af381610acd565b92915050565b60008060408385031215610b1057610b0f61070e565b5b6000610b1e85828601610739565b9250506020610b2f85828601610ae4565b9150509250929050565b60008115159050919050565b610b4e81610b39565b82525050565b6000602082019050610b696000830184610b45565b92915050565b60028110610b7c57600080fd5b50565b600081359050610b8e81610b6f565b92915050565b60008060408385031215610bab57610baa61070e565b5b6000610bb985828601610739565b9250506020610bca85828601610b7f565b9150509250929050565b7f4e487b7100000000000000000000000000000000000000000000000000000000600052602260045260246000fd5b60006002820490506001821680610c1b57607f821691505b602082108103610c2e57610c2d610bd4565b5b50919050565b60008190508160005260206000209050919050565b60006020601f8301049050919050565b600082821b905092915050565b600060088302610c967fffffffffffffffffffffffffffffffffffffffffffffffffffffffffffffffff82610c59565b610ca08683610c59565b95508019841693508086168417925050509392505050565b6000819050919050565b6000610cdd610cd8610cd384610718565b610cb8565b610718565b9050919050565b6000819050919050565b610cf783610cc2565b610d0b610d0382610ce4565b848454610c66565b825550505050565b600090565b610d20610d13565b610d2b818484610cee565b505050565b5b81811015610d4f57610d44600082610d18565b600181019050610d31565b5050565b601f821115610d9457610d6581610c34565b610d6e84610c49565b81016020851015610d7d578190505b610d91610d8985610c49565b830182610d30565b50505b505050565b600082821c905092915050565b6000610db760001984600802610d99565b1980831691505092915050565b6000610dd08383610da6565b9150826002028217905092915050565b610de98261077b565b67ffffffffffffffff811115610e0257610e01610870565b5b610e0c8254610c03565b610e17828285610d53565b600060209050601f831160018114610e4a5760008415610e38578287015190505b610e428582610dc4565b865550610eaa565b601f198416610e5886610c34565b60005b82811015610e8057848901518255600182019150602085019450602081019050610e5b565b86831015610e9d5784890151610e99601f891682610da6565b8355505b6001600288020188555050505b505050505050565b7f4e487b7100000000000000000000000000000000000000000000000000000000600052601160045260246000fd5b6000610eec82610718565b9150610ef783610718565b9250828201905080821115610f0f57610f0e610eb2565b5b92915050565b6000610f2082610718565b91507fffffffffffffffffffffffffffffffffffffffffffffffffffffffffffffffff8203610f5257610f51610eb2565b5b600182019050919050565b7f444541444c494e455f494e5f5448455f50415354000000000000000000000000600082015250565b6000610f93601483610786565b9150610f9e82610f5d565b602082019050919050565b60006020820190508181036000830152610fc281610f86565b9050919050565b7f454d5054595f50524f504f53414c5f4e414d4500000000000000000000000000600082015250565b6000610fff601383610786565b915061100a82610fc9565b602082019050919050565b6000602082019050818103600083015261102e81610ff2565b9050919050565b7f414c52454144595f564f54454400000000000000000000000000000000000000600082015250565b600061106b600d83610786565b915061107682611035565b602082019050919050565b6000602082019050818103600083015261109a8161105e565b9050919050565b7f444541444c494e455f4558434545444544000000000000000000000000000000600082015250565b60006110d7601183610786565b91506110e2826110a1565b602082019050919050565b60006020820190508181036000830152611106816110ca565b9050919050565b7f4e487b7100000000000000000000000000000000000000000000000000000000600052602160045260246000fd5b61114581610abb565b82525050565b6000606082019050818103600083015261116581866107d2565b9050611174602083018561113c565b611181604083018461080b565b94935050505056fea26469706673582212209d4d8217a82100e0aaf74dc077c877758469aeffb6ed2a823da11fd265b2d4d864736f6c63430008120033",
  "immutableReferences": {},
  "source": "// SPDX-License-Identifier: MIT\npragma solidity 0.8.18;\n/// @title Simple DAO smart contract.\n\nimport \"truffle/console.sol\";\n\ncontract Dao {\n\n    enum Vote { NO, YES }\n\n    // Create a mapping of ID => Proposal\n    mapping(uint256 => Proposal) public proposals;\n    // Number of proposals that have been created\n    uint256 public num_proposals;\n    \n    //  Todo\n    // mapping(address => bool) []  // array index is proposal ID\n    // or better use C++ std::set e.g. [proposal ID, hash_set of addresses)], we do not need bools\n    // proposal ID => (voter_addr => voted)\n    mapping(uint256 => mapping(address => bool)) public voters;\n    uint256[] public arr;\n\n    // --------------------------------\n\n    // Create a struct named Proposal containing all relevant information\n    struct Proposal {\n        string name;\n        uint256 yes_votes;\n        uint256 no_votes;                \n        uint256 deadline; // the UNIX timestamp until which this proposal is open to voting \n    }\n\n    // function get_name(uint256 index) public view returns(Proposal) {\n\t// \treturn proposals[index];\n\t// }\n\n    function create_proposal(string memory name) public {\n        Proposal storage proposal = proposals[num_proposals];\n        proposal.name = name;\n        proposal.deadline = block.timestamp + 90 days;\n        num_proposals++;\n    }\n\n    // hint: https://www.unixtimestamp.com/\n    function change_proposal_deadline(uint256 prop_id, uint256 unix_timestamp) public {\n        Proposal storage proposal = proposals[prop_id];\n        require(unix_timestamp > block.timestamp, \"DEADLINE_IN_THE_PAST\");\n        proposal.deadline = unix_timestamp;\n    }\n\n    function change_proposal_name(uint256 prop_id, string memory name) public {\n        // todo: reject empyt string\n        require(keccak256(bytes(name)) == keccak256(\" \"), \"EMPTY_PROPOSAL_NAME\");\n        Proposal storage proposal = proposals[prop_id];\n        proposal.name = name;\n    }\n\n    function vote_on_proposal(uint256 prop_id, Vote vote) public {\n        require(voters[prop_id][msg.sender] == false, \"ALREADY_VOTED\");\n        require(\n            proposals[prop_id].deadline > block.timestamp,\n            \"DEADLINE_EXCEEDED\"\n        );\n        Proposal storage proposal = proposals[prop_id];\n        voters[prop_id][msg.sender] = true;\n        console.log(\"%s voted for prop. id %d\", msg.sender, prop_id);\n\n        if (vote == Vote.YES) {\n            proposal.yes_votes += 1;\n        } else {\n            proposal.no_votes += 1;\n        }\n    }\n\n    // --------------------------------\n\n    // function get_proposal(uint256 index) public view returns(Proposal) {\n\t// \treturn proposals[index];\n\t// }\n\n}",
  "sourcePath": "/home/gsimsek/code/ether/metacoin_truffle/contracts/Dao.sol",
  "compiler": {
    "name": "solc",
    "version": "0.8.18+commit.87f61d96.Emscripten.clang"
  },
  "schemaVersion": "3.4.16",
  "updatedAt": "2023-10-31T12:32:48.202Z",
  "devdoc": {
    "kind": "dev",
    "methods": {},
    "version": 1
  },
  "userdoc": {
    "kind": "user",
    "methods": {},
    "version": 1
  }
}